:1000000003308A00C42B0000FF00030E8301A1000F
:100010000A08A0008A010408A2007708A300780853
:10002000A4007908A5007A08A600831383128B1D0B
:100030001B280B182C28220884002308F70024080A
:10004000F8002508F9002608FA0020088A00210E89
:100050008300FF0E7F0E09008A110A12DB290A10A5
:100060008A100A11820728340C34013406343E30D9
:1000700084008313000803194B280130F800F701AE
:10008000F70B4028F80B3F284A30F700F70B4628BB
:100090004928800B3D280800A811280883168700EE
:1000A00083128711A81028088316870083128714EB
:1000B0000000C6012811280883168700831207153F
:1000C0000000281628088316870083124610071A96
:1000D0004614A8162808831687008312C610871AAC
:1000E000C614281728088316870083124611071B99
:1000F0004615A8172808831687008312C611871B88
:10010000C615281128088316870083120711460890
:10011000F8007808C500C601281128088316870052
:1001200083120715000028162808831687008312FB
:100130004610071A4614A81628088316870083124B
:10014000C610871AC614281728088316870083123A
:100150004611071B4615A817280883168700831227
:10016000C611871BC615281128088316870083121D
:1001700007114608F8007808C400450EF700F03073
:10018000F70577084404F8007808C400C41B522817
:10019000C2080319D228A8112808831687008312E1
:1001A0008715D828A811280883168700831287117D
:1001B0000000A8102808831687008312871000000B
:1001C000281128088316870083120711430EC400E4
:1001D0000F30C4054408C5004518F0280712F1285F
:1001E000071628122808831687008312C518FA28D4
:1001F0008712FB288716A812280883168700831207
:1002000045190429071305290717281328088316F9
:1002100087008312C5190E2987130F298717A81382
:1002200028088316870000008312281128088316E7
:100230008700831207151C292811280883168700B8
:100240008312071143080F39C4004408C50045183C
:100250002B2907122C290716281228088316870035
:100260008312C5183529871236298716A81228083F
:1002700083168700831245193F2907134029071762
:1002800028132808831687008312C5194929871364
:100290004A298717A81328088316870000008312AD
:1002A000281128088316870083120715572928115B
:1002B0002808831687008312071108003F0B612965
:1002C00064294030C0006529C00101303E02C007EA
:1002D00040088038C100C2014108C3004C2008001A
:1002E0003D080C3A03197B29063A03198329023A7F
:1002F000031989298E29C2010130C3004C20023024
:10030000BE00372094290130BE000230BF005E21BC
:100310009429C2011030C3004C2094290130C2003E
:100320003D08C3004C2094290800831603178C173E
:100330000C140000000083120C087F390319D9291E
:100340000313BA0003170D080313BB0003170F08AC
:100350000313BC003A08BD0070213B0803178D0051
:1003600003133C0803178F0083168C170C1400002E
:10037000000083120C0D0E0D7F390319D9290313C8
:10038000BA0003170D080313BB0003170F0803136C
:10039000BC003A08BD0070213B0803178D00031311
:1003A0003C0803178F008D0A03198F0A0313952940
:1003B0000317031308000608EF3A0319E329303A3C
:1003C0000319EF292E2A831688128312881202300D
:1003D000BA00FA30BE003720BA0BE9292E2A0C30B9
:1003E000BD00702183160810831208108316881030
:1003F0008312881083168813831288138316881239
:10040000831288120730BE000130BF005E213230F7
:1004100003178D0002308F00031395210430BE00B6
:100420000230BF005E21353003178D0002308F008F
:1004300003139521831688158312881DF2290C3029
:10044000BD0070210130BE00BF005E213B300317AC
:100450008D0002308F00031395212E2A0B108A1174
:100460000A121B28D020D2270000C5366539E73292
:10047000EE31E93000015039EF31E5396F1049377D
:10048000E931E930E43700004937E931E937201034
:1004900020102010201020004937E931E9372010C2
:1004A0002010201020102000CD20D12A4927410003
:1004B000C12AD427CD20D424C32000015039EF31E4
:1004C000E5396F104937E931E930E4370001D332BB
:1004D000EE396F39A0190001D332EE396F39201A85
:1004E0000001D332EE396F39A0190001C634EE3065
:1004F000EC34FA30E43720102010201020100001D6
:10050000D332EE396F39201A0001C634EE30EC34A4
:10051000FA30E43720102010201020100000A8111D
:1005200028088316870083128711A81028088316CD
:1005300087008312871028112808831687008312EA
:100540000711A7018B1BA7178B130F30BE00372095
:10055000A71B8B17AD012D08023C031CF22A0330A8
:10056000C5004518B52A0712B62A0716281228080A
:10057000831687008312C518BF2A8712C02A8716E0
:10058000A81228088316870083124519C92A071361
:10059000CA2A071728132808831687008312C5194B
:1005A000D32A8713D42A8717A8132808831687000D
:1005B000000083122811280883168700831207156C
:1005C000E12A281128088316870083120711A70142
:1005D0008B1BA7178B130530BE003720A71B8B176B
:1005E000AD0AAB2A0230C5004518F82A0712F92ACD
:1005F000071628122808831687008312C518022BB5
:100600008712032B8716A8122808831687008312E7
:1006100045190C2B07130D2B0717281328088316D1
:1006200087008312C519162B8713172B8717A8135A
:1006300028088316870000008312281128088316D3
:10064000870083120715242B28112808831687009A
:1006500083120711AD012D08033C031C3E2B2D080E
:100660002F20AE00A7018B1BA7178B13C2012E08EA
:10067000C3004C20A71B8B17AD0A2B2B8A110A1223
:10068000D72B83168813831288170430AD00A70177
:100690008B1BA7178B13FA30BE003720A71B8B17B5
:1006A000AD0B472B080083160810831208148A111B
:1006B0000A12682C83160810831208100230AD004D
:1006C000A7018B1BA7178B13FA30BE003720A71B7F
:1006D0008B17AD0B602B8316881383128813831638
:1006E0008812831288160830AD00A7018B1BA7174C
:1006F0008B13FA30BE003720A71B8B17AD0B752B61
:10070000831688128312881283168813831288171F
:1007100083168810831288148A110A12902C83166B
:100720008810831288100230AD00A7018B1BA71719
:100730008B13FA30BE003720A71B8B17AD0B952B00
:1007400083168813831288138316881283128816DF
:100750000830AD00A7018B1BA7178B13FA30BE0022
:100760003720A71B8B17AD0BAA2B83168812831279
:100770008812831688138312881783160810831231
:1007800008148A110A12BA2C840183131F308305BE
:10079000A901AA010130AC0083161F149F141F1574
:1007A0009F1107309C00FF308312A8008F2A02306F
:1007B000AD00A7018B1BA7178B13FA30BE003720A3
:1007C000A71B8B17AD0BD92BA7018B1BA7178B135F
:1007D0000530BE000130BF005E21A71B8B175430CF
:1007E00003178D0002308F000313A7018B1BA7177F
:1007F0008B139521A71B8B17A7018B1BA7178B1397
:100800000430BE000230BF005E21A71B8B1758309A
:1008100003178D0002308F000313A7018B1BA7174E
:100820008B139521A71B8B170230AD00A7018B1BE3
:10083000A7178B13FA30BE003720A71B8B17AD0B01
:10084000162CA7018B1BA7178B130C30BD00702132
:10085000A71B8B17183083168800FF308600850091
:1008600083128B15C0308B048316880118308312D5
:100870008800831608128312081283160811831247
:100880000815831688158312881D6B2CA908031D73
:100890006B2C831685148312851C6B2CA7018B1B74
:1008A000A7178B130130BE00BF005E21A71B8B175B
:1008B0005E3003178D0002308F000313A7018B1BDE
:1008C000A7178B139521A71B8B1741234123532B6C
:1008D0000130A900AB002B0BE82D83160514831201
:1008E000051C982CAA08031D982C2C0B982CA701EA
:1008F0008B1BA7178B130130BE000230BF005E2197
:10090000A71B8B17673003178D0002308F0003136E
:10091000A7018B1BA7178B139521A71B8B175A2B8E
:10092000831606168312061A962CAC010130AA0013
:10093000831685148312851CC12C2A0BC12C2C0B09
:10094000C12CA7018B1BA7178B130130BE000230EF
:10095000BF005E21A71B8B176C3003178D00023080
:100960008F000313A7018B1BA7178B139521A71BC0
:100970008B178F2B831606168312061AC02CAC0118
:10098000AA01831605148312051C5B2DAA08031DFA
:100990005B2DAC08031D5B2DA7018B1BA7178B13C9
:1009A0000130BE000230BF005E21A71B8B177130E3
:1009B00003178D0002308F000313A7018B1BA717AD
:1009C0008B139521A71B8B17A7018B1BA7178B13C5
:1009D0000130BE00BF005E21A71B8B1776300317C6
:1009E0008D0002308F000313A7018B1BA7178B13F9
:1009F0009521A71B8B17831608108312081002304D
:100A0000AD00A7018B1BA7178B13FA30BE00372050
:100A1000A71B8B17AD0B012D831688138312881328
:100A20000230AD00A7018B1BA7178B13FA30BE0055
:100A30003720A71B8B17AD0B122D831608138312BB
:100A400008178316881283128816831608168312D5
:100A5000081E1D2D83168812831288128316081310
:100A60008312081383168810831288148316851442
:100A70008312851C322D8316881083128810A701DB
:100A80008B1BA7178B130130BE00BF005E21A71B75
:100A90008B17443003178D0002308F000313A7011A
:100AA0008B1BA7178B139521A71B8B170130AA004F
:100AB000AB01A901AC00831685148312851CE72DB8
:100AC0002A0BE72DAC08031DE72DA7018B1BA717E9
:100AD0008B130130BE000230BF005E21A71B8B17B5
:100AE000803003178D0002308F000313A7018B1B8A
:100AF000A7178B139521A71B8B17A7018B1BA71774
:100B00008B130130BE00BF005E21A71B8B17853001
:100B100003178D0002308F000313A7018B1BA7174B
:100B20008B139521A71B8B178316881083128810AF
:100B30000230AD00A7018B1BA7178B13FA30BE0044
:100B40003720A71B8B17AD0B9A2D831688138312A2
:100B500088130230AD00A7018B1BA7178B13FA3047
:100B6000BE003720A71B8B17AD0BAB2D83160813C8
:100B700083120817831688128312881683160816A4
:100B80008312081EB62D83168812831288128316CC
:100B9000081383120813A7018B1BA7178B130130AF
:100BA000BE00BF005E21A71B8B174C3003178D00C2
:100BB00002308F000313A7018B1BA7178B139521FE
:100BC000A71B8B17AA01AB01A9010130AC006B2C4C
:040BD000412C630051
:02400E00713F00
:00000001FF
;PIC16F877A
;CRC=DBC3  CREATED="16-Nov-11 22:59"
